{
  "contractName": "Client",
  "abi": [
    {
      "constant": true,
      "inputs": [],
      "name": "clientCount",
      "outputs": [
        {
          "name": "",
          "type": "uint256"
        }
      ],
      "payable": false,
      "stateMutability": "view",
      "type": "function"
    },
    {
      "constant": true,
      "inputs": [
        {
          "name": "",
          "type": "uint256"
        }
      ],
      "name": "clients",
      "outputs": [
        {
          "name": "cin",
          "type": "uint256"
        },
        {
          "name": "fullName",
          "type": "string"
        },
        {
          "name": "age",
          "type": "uint256"
        },
        {
          "name": "state",
          "type": "bool"
        }
      ],
      "payable": false,
      "stateMutability": "view",
      "type": "function"
    },
    {
      "inputs": [],
      "payable": false,
      "stateMutability": "nonpayable",
      "type": "constructor"
    },
    {
      "constant": false,
      "inputs": [
        {
          "name": "_fullName",
          "type": "string"
        },
        {
          "name": "_age",
          "type": "uint256"
        }
      ],
      "name": "createClient",
      "outputs": [],
      "payable": false,
      "stateMutability": "nonpayable",
      "type": "function"
    }
  ],
  "bytecode": "0x60806040526000805534801561001457600080fd5b506100646040805190810160405280600981526020017f61686d656420616c690000000000000000000000000000000000000000000000815250601a610069640100000000026401000000009004565b6101b2565b600080815480929190600101919050555060806040519081016040528060005481526020018381526020018281526020016001151581525060016000805481526020019081526020016000206000820151816000015560208201518160010190805190602001906100db92919061010d565b506040820151816002015560608201518160030160006101000a81548160ff0219169083151502179055509050505050565b828054600181600116156101000203166002900490600052602060002090601f016020900481019282601f1061014e57805160ff191683800117855561017c565b8280016001018555821561017c579182015b8281111561017b578251825591602001919060010190610160565b5b509050610189919061018d565b5090565b6101af91905b808211156101ab576000816000905550600101610193565b5090565b90565b610476806101c16000396000f3fe608060405260043610610057576000357c0100000000000000000000000000000000000000000000000000000000900463ffffffff1680639e3881431461005c578063e541c71e1461012e578063f88af21d14610159575b600080fd5b34801561006857600080fd5b5061012c6004803603604081101561007f57600080fd5b810190808035906020019064010000000081111561009c57600080fd5b8201836020820111156100ae57600080fd5b803590602001918460018302840111640100000000831117156100d057600080fd5b91908080601f016020809104026020016040519081016040528093929190818152602001838380828437600081840152601f19601f82011690508083019250505050505050919291929080359060200190929190505050610226565b005b34801561013a57600080fd5b506101436102ca565b6040518082815260200191505060405180910390f35b34801561016557600080fd5b506101926004803603602081101561017c57600080fd5b81019080803590602001909291905050506102d0565b604051808581526020018060200184815260200183151515158152602001828103825285818151815260200191508051906020019080838360005b838110156101e85780820151818401526020810190506101cd565b50505050905090810190601f1680156102155780820380516001836020036101000a031916815260200191505b509550505050505060405180910390f35b600080815480929190600101919050555060806040519081016040528060005481526020018381526020018281526020016001151581525060016000805481526020019081526020016000206000820151816000015560208201518160010190805190602001906102989291906103a5565b506040820151816002015560608201518160030160006101000a81548160ff0219169083151502179055509050505050565b60005481565b6001602052806000526040600020600091509050806000015490806001018054600181600116156101000203166002900480601f0160208091040260200160405190810160405280929190818152602001828054600181600116156101000203166002900480156103825780601f1061035757610100808354040283529160200191610382565b820191906000526020600020905b81548152906001019060200180831161036557829003601f168201915b5050505050908060020154908060030160009054906101000a900460ff16905084565b828054600181600116156101000203166002900490600052602060002090601f016020900481019282601f106103e657805160ff1916838001178555610414565b82800160010185558215610414579182015b828111156104135782518255916020019190600101906103f8565b5b5090506104219190610425565b5090565b61044791905b8082111561044357600081600090555060010161042b565b5090565b9056fea165627a7a723058208ea0fd25099224f770cb3ed1e3d39636db79e6e7073026fbf54195135a5f82a40029",
  "source": "pragma solidity ^0.5.0;\r\n \r\ncontract Client {\r\n // uint public taskCount = 0;\r\n  uint public clientCount = 0;\r\n \r\n  struct ClientStruct {\r\n     uint cin;\r\n     string fullName;\r\n     uint age;\r\n     bool state;\r\n  }\r\n\r\n   // store key value pair\r\n   // uint key typpe, Task: type element\r\n   \r\n   //mapping(uint => Task ) public tasks;\r\n   mapping(uint => ClientStruct ) public clients;\r\n\r\n\r\n   // add tasks to list whenever we deploy a SC\r\n   // when entering first time\r\n   constructor() public {\r\n      //createTask(\"check out sitecom\");\r\n      createClient(\"ahmed ali\", 26);\r\n   }\r\n   \r\n   //string: content of the Task\r\n   //function to create a task, id: taskCount\r\n   function createClient(string memory _fullName, uint _age) public {\r\n       //taskCount ++;\r\n       //tasks[taskCount] = Task(taskCount, _content, false);\r\n       clientCount++;\r\n       clients[clientCount] = ClientStruct(clientCount, _fullName, _age, true);\r\n\r\n   }\r\n}",
  "sourcePath": "C:/Users/fatma/Desktop/projet_blockchain2/contracts/Client.sol",
  "compiler": {
    "name": "solc",
    "version": "0.5.0+commit.1d4f565a.Emscripten.clang"
  },
  "schemaVersion": "3.0.1",
  "updatedAt": "2022-11-19T23:45:31.054Z",
  "devdoc": {
    "methods": {}
  },
  "userdoc": {
    "methods": {}
  }
}